S0100000726F626F776966692E73726563B3
S11300000C94E6000C9403010C9403010C94B50DBC
S11300100C9403010C9403010C9403010C9403014C
S11300200C9403010C9403010C9403010C9403013C
S11300300C9403010C9403010C9403010C9403012C
S11300400C9403010C9403010C9403010C9403011C
S11300500C9403010C9403010C9403010C9403010C
S11300600C9461100C9403010C9403010C9403018F
S11300700C9403010C9403010C9403010C940301EC
S11300800C9403010C9403010C9403010C940301DC
S11300900C9403010C9403010C9403010C940301CC
S11300A08719801995198E19AA199C19A3194A2818
S11300B04A289428202835283B286B286B28C428F4
S11300C00A28F628F628F628F62841280009121BE3
S11300D0242D363F48415A536C657E7719100B0224
S11300E03D342F265158434A757C676E323B202994
S11300F0161F040D7A7368615E574C452B22393004
S11301000F061D14636A7178474E555C646D767FE3
S11301104049525B2C253E3708011A137D746F66E3
S113012059504B42353C272E1118030A565F444D53
S1130130727B60691E170C053A3328214F465D54C3
S11301406B627970070E151C232A31384148535AC3
S1130150656C777E09001B122D243F3658514A43A3
S11301607C756E671019020B343D262F737A616813
S1130170575E454C3B3229201F160D046A63787183
S11301804E475C55222B3039060F141D252C373E63
S11301900108131A6D647F7649405B523C352E2763
S11301A018110A03747D666F5059424B171E050CD3
S11301B0333A21285F564D447B7269600E071C1543
S11301C02A233831464F545D626B707911241FBE67
S11301D0CFEFCDBFDFE3DEBF18E2A0E0B8E2E3EA91
S11301E0FEE702C005900D92A634B107D9F72FE2BD
S11301F0A6E4B8E201C01D92A133B207E1F70E9460
S113020021060C94823E0C940000CF93DF93CDB76B
S1130210DEB70E94C50B0000DF91CF910895CF9304
S1130220DF93CDB7DEB780E894E020E834E0F9014D
S113023020812860FC01208380E894E020E834E0F9
S1130240F90120812460FC01208380E894E020E807
S113025034E0F90124812B7FFC01248380E894E0BD
S113026020E834E0F90124812860FC01248380EA39
S113027094E020EA34E0F90120812064FC01208329
S113028080EA94E020EA34E0F90120812061FC0155
S1130290208380EA94E020EA34E0F90124812F7B72
S11302A0FC01248380EA94E020EA34E0F90124810B
S11302B02061FC0124830000DF91CF910895CF9346
S11302C0DF93CDB7DEB780E294E020E234E0F901B9
S11302D020812062FC01208384E294E024E234E063
S11302E0F90120812062FC01208380EB9AE02FEF4A
S11302F0FC01248780EB9AE0FC01158680EB9AE0F0
S113030020EB3AE0F90120812160FC01208380EB9D
S11303109AE020EB3AE0F90121812061FC0121837C
S113032080EB9AE020EB3AE0F90121812760FC019F
S113033021830000DF91CF910895CF93DF93CDB750
S1130340DEB780EA94E020EA34E0F90120812062FB
S1130350FC01208380EA94E020EA34E0F90124815E
S11303602062FC01248380E99AE02FEFFC012487BA
S113037080E99AE0FC01158680E99AE020E93AE0F8
S1130380F90120812160FC01208380E99AE020E9C1
S11303903AE0F90121812061FC01218380E99AE09E
S11303A020E93AE0F90121812760FC01218380EEF4
S11303B095E020EE35E0F90125812260FC012583DA
S11303C00000DF91CF9108950F931F93CF93DF9394
S11303D01F92CDB7DEB7898380E894E020E834E04B
S11303E0F90124812B7FFC01248380E894E020E838
S11303F034E0F90124812860FC01248381E08093A6
S1130400462800EB1AE089810E94A702F80185873B
S113041000000F90DF91CF911F910F910895CF931A
S1130420DF93CDB7DEB780EB9AE0FC0115860000C0
S1130430DF91CF9108950F931F93CF93DF931F9272
S1130440CDB7DEB7898380EA94E020EA34E0F9018D
S113045024812F7BFC01248380EA94E020EA34E0A9
S1130460F90124812061FC0124831092472800E9CA
S11304701AE089810E94E202F801858700000F904A
S1130480DF91CF911F910F910895CF93DF93CDB753
S1130490DEB780E99AE0FC0115860000DF91CF9178
S11304A008950F931F93CF93DF931F92CDB7DEB7B9
S11304B0898380E894E020E834E0F9012481277FEF
S11304C0FC01248380E894E020E834E0F9012481ED
S11304D02460FC01248300EB1AE089810E94A702B6
S11304E0F801858781E08093462800000F90DF9112
S11304F0CF911F910F9108950F931F93CF93DF9383
S11305001F92CDB7DEB7898380EA94E020EA34E015
S1130510F90124812F7EFC01248380EA94E020EAFF
S113052034E0F90124812064FC01248300E91AE009
S113053089810E94E202F801858781E0809347283F
S113054000000F90DF91CF911F910F910895CF93E9
S1130550DF9300D01F92CDB7DEB78B838B81882FBA
S113056090E089839A8389819A81092E000CAA0BD1
S1130570BB0BBC01CD010E941A3ADC01CB0120E087
S113058030E048EC52E4BC01CD010E947039DC013A
S1130590CB0120E030E04FE753E4BC01CD010E94E1
S11305A0CF3ADC01CB01BC01CD010E94E239DC0170
S11305B0CB0189839A8389812396CDBFDEBFDF91E6
S11305C0CF910895CF93DF9300D01F92CDB7DEB7BC
S11305D08B838B81882F90E089839A8389819A8188
S11305E0092E000CAA0BBB0BBC01CD010E941A3AC8
S11305F0DC01CB0120E030E048EC52E4BC01CD0149
S11306000E947039DC01CB0120E030E04FE753E475
S1130610BC01CD010E94CF3ADC01CB01BC01CD016C
S11306200E94E239DC01CB0189839A838981239674
S1130630CDBFDEBFDF91CF910895CF93DF93CDB7C8
S1130640DEB76197CDBFDEBF888B998B0E94B51052
S1130650CE0102964EE050E060E070E00E946A3BFA
S113066088899989FC01808191818A839B83CE0149
S113067002960E945D1C89838981882309F0FFCF3B
S113068000006196CDBFDEBFDF91CF910895CF9377
S1130690DF9300D01F92CDB7DEB789836A837B8353
S11306A08981882F90E00E94330E00002396CDBFED
S11306B0DEBFDF91CF910895CF93DF93CDB7DEB73F
S11306C02697CDBFDEBF8D839E838D819E8101964B
S11306D0FC018081882F90E089839A838D819E819B
S11306E00296FC018081882F90E08B839C83898112
S11306F0880F982F990F990F980F8B81890F8093EA
S1130700382800002696CDBFDEBFDF91CF91089533
S1130710CF93DF93CDB7DEB72697CDBFDEBF8B83F4
S11307209C836D837E8319821A8219821A820BC07C
S113073089819A818C57914DFC01108289819A811B
S1130740019689839A8389819A810A9788F3198209
S11307501A8218C089819A812B813C81820F931F50
S11307602D813E81F9014081518129813A81240FF3
S1130770351FF9012081FC01208389819A8101962A
S113078089839A838D819E81FC01208131818981B5
S11307909A81820F931FFC018081883721F089811F
S11307A09A810A97BCF200002696CDBFDEBFDF9186
S11307B0CF9108950F931F93CF93DF93CDB7DEB7F7
S11307C02C97CDBFDEBF89876A874B875C878A8574
S11307D0882F90E08430910509F45CC08530910540
S11307E034F48130910559F0029769F1A9C186303A
S11307F0910509F48DC0079709F47EC0A1C18B85CA
S11308009C8589839A8389819A81892B81F0898146
S11308109A81FC018081882351F488E09DEB0E9439
S1130820903B80910E2860E00E947D3589C182E270
S11308309DEB0E94903B80910E280E949E378FEF83
S113084080930E287DC18B859C858B839C838B81B3
S11308509C81892B99F08B819C81FC018081882368
S113086069F48AE39DEB0E94903B80910E2840E05E
S113087050E060E070E00E94D83562C186E59DEBEF
S11308800E94903B80910E280E949E378FEF8093A8
S11308900E2856C18B859C858D839E838D819E8178
S11308A0892BF1F080E79DEB0E94903B80910E280C
S11308B040E050E060E070E00E94D8358D819E8178
S11308C0FC01808180930F2880910F2800E010E0C4
S11308D0980144EB55E069E478E20E94B43630C1F3
S11308E08CE89DEB0E94903B80910E280E949E37DD
S11308F08FEF80930E2824C180910F2800E010E030
S1130900980144EB55E069E478E20E94B43618C1DA
S11309108B859C858F8398878F819885892B09F493
S113092003C18F819885FC01828193811816190671
S11309300CF0FAC086EA9DEB0E94903B8F8198856B
S1130940BC0184E89EE20E94880360EC7DEB84E8AD
S11309509EE20E94713B892BB9F4809138280E9451
S1130960E401809138280E941B02809138280E945B
S1130970510287EC9DEB892F8F9387EC9DEB8F932E
S11309800E947A3B0F900F9063ED7DEB84E89EE22A
S11309900E94713B892B41F4809138280E94E40124
S11309A0809138280E941B026BED7DEB84E89EE267
S11309B00E94713B892B81F4809138280E94E401C4
S11309C0809138280E941B02809138280E9451028D
S11309D0809138280E947C0264EE7DEB84E89EE2DC
S11309E00E94713B892B21F40E940F020E94450250
S11309F069EE7DEB84E89EE20E94713B892B31F421
S1130A000E940F02809138280E941B026EEE7DEB3B
S1130A1084E89EE20E94713B892B31F4809138284E
S1130A200E94E4010E94450264EF7DEB84E89EE2AB
S1130A300E94713B892B61F40E940F020E944502BF
S1130A4080910F280E949E3780910E280E949E3725
S1130A508091842E833609F048C084E89EE20E9487
S1130A605C0380E99AE0FC0185858823B1F080EB82
S1130A709AE0FC018585882381F000E91AE08091E1
S1130A8038280E94E202F801858700EB1AE0809181
S1130A9038280E94A702F801858780E99AE0FC01C2
S1130AA08585882371F080EB9AE0FC018585882395
S1130AB041F400E91AE0809138280E94E202F8012A
S1130AC0858780EB9AE0FC018585882371F080E9B5
S1130AD09AE0FC018585882341F400EB1AE08091BB
S1130AE038280E94E202F801858784E89EE2892F73
S1130AF08F9384E89EE28F938AEF9DEB892F8F93E7
S1130B008AEF9DEB8F930E947A3B0F900F900F908A
S1130B100F9080910F2820E030E048E250E060E13F
S1130B2078E20E9401360BC082E09EEB0E94903B6B
S1130B3080910E280E949E378FEF80930E2800002C
S1130B4000002C96CDBFDEBFDF91CF911F910F9196
S1130B500895CF93DF93CDB7DEB72797CDBFDEBF20
S1130B608D836E837F838D81882F90E08C329105F5
S1130B7019F0C297E9F05EC08E819F8189839A83C0
S1130B8089819A81FC018081813021F481E0809304
S1130B9048284FC089819A81FC018081882309F00B
S1130BA048C0109248288AE19EEB0E94903B41C0C5
S1130BB08E819F818B839C8381E08093482880E38E
S1130BC09EEB0E94903B8B819C810396FC0180816B
S1130BD0682F70E08B819C810296FC018081482FF4
S1130BE050E08B819C810196FC018081282F30E0AC
S1130BF08B819C81FC018081882F90E0E72FEF930B
S1130C006F93652F6F934F93432F4F932F93292FF8
S1130C102F938F9383E49EEB892F8F9383E49EEB32
S1130C208F930E947A3B8DB79EB70A96CDBFDEBFE5
S1130C3001C0000000002796CDBFDEBFDF91CF9139
S1130C4008950F931F93CF93DF93CDB7DEB7C75AA1
S1130C50D109CDBFDEBF198280E098E280932D2FA9
S1130C6090932E2F0E9405010E940F010E945F01A4
S1130C700E949D0178940E94B510CE0188569F4F22
S1130C8022E030E0FC0120833183CE0188569F4F5F
S1130C902AE13AE0FC01228333839E0128563F4F28
S1130CA08FEF9FEFDC01F90184839583A683B783DB
S1130CB0CE0102964EE050E060E070E00E946A3B94
S1130CC089EA95E08A839B83CE0102960E941D03E4
S1130CD00E94D53360E070E08AED93E00E94F63321
S1130CE00FEF10E02FE53EEB42E069E089E69EEB72
S1130CF00E94B21C23C0809148288130F9F480916D
S1130D000E288823DCF440E061E082E090E00E9459
S1130D10133480930E2880910E2888232CF482E7C4
S1130D209EEB0E94903B0AC020910E28CE0188566B
S1130D309F4F40E1BC01822F0E94F53480E090E097
S1130D400E94A41C8823B9F2D5CFCF93DF93CDB7EB
S1130D50DEB780E0DF91CF910895CF93DF9300D089
S1130D601F92CDB7DEB789839A836B8389819A8179
S1130D704B8168ED0E94140C00002396CDBFDEBFAA
S1130D80DF91CF910895CF93DF93CDB7DEB761E0C4
S1130D9081E690E00E94AD0680E0DF91CF91089556
S1130DA0CF93DF93CDB7DEB780E0DF91CF91089585
S1130DB0CF93DF9300D000D0CDB7DEB78B836C83A5
S1130DC08B81882F90E0805F9B4F89839A838C81ED
S1130DD0813059F489819A81FC018081282F28600F
S1130DE089819A81FC0120830DC08C81882351F470
S1130DF089819A81FC018081282F277F89819A81AA
S1130E00FC01208300002496CDBFDEBFDF91CF918B
S1130E100895CF93DF9300D0CDB7DEB789836A837B
S1130E208A81882F90E081309105E1F0823091052C
S1130E3071F1892B09F03BC020E030E080E090E0C4
S1130E40FC018081682F8981482F50E081E090E087
S1130E5002C0880F991F4A95E2F780958623F9010D
S1130E60808325C020E030E080E090E0FC018081B8
S1130E70682F8981482F50E081E090E002C0880FFC
S1130E80991F4A95E2F7862BF901808310C0898166
S1130E90882F90E0805F9B4F2981222F30E0205FD4
S1130EA03B4FF90120812860FC01208300000000F1
S1130EB00F900F90DF91CF910895CF93DF9300D0DF
S1130EC0CDB7DEB789836A838A818823A9F020E0BD
S1130ED030E080E090E0FC018181682F8981482F17
S1130EE050E081E090E002C0880F991F4A95E2F734
S1130EF0862BF901818315C020E030E080E090E08A
S1130F00FC018181682F8981482F50E081E090E0C5
S1130F1002C0880F991F4A95E2F780958623F9014C
S1130F20818300000F900F90DF91CF910895CF93AC
S1130F30DF9300D000D0CDB7DEB78B836C838B8179
S1130F40882F90E0805D9B4F89839A838C818130C8
S1130F5059F489819A81FC018081282F2860898134
S1130F609A81FC0120830DC08C81882351F48981EE
S1130F709A81FC018081282F277F89819A81FC0135
S1130F80208300002496CDBFDEBFDF91CF9108956A
S1130F90CF93DF9300D0CDB7DEB789836A838A818C
S1130FA0882F90E081309105E1F08230910571F154
S1130FB0892B09F03BC084E090E024E030E0F901A3
S1130FC02081622F2981422F50E021E030E002C0CD
S1130FD0220F331F4A95E2F720952623FC01208334
S1130FE025C084E090E024E030E0F9012081622F04
S1130FF02981422F50E021E030E002C0220F331F4C
S11310004A95E2F7262BFC01208310C08981882FA2
S113101090E0805D9B4F2981222F30E0205D3B4F83
S1131020F90120812860FC012083000000000F905A
S11310300F90DF91CF910895CF93DF9300D0CDB778
S1131040DEB789836A838A818823A9F084E090E0EB
S113105024E030E0F9012181622F2981422F50E000
S113106021E030E002C0220F331F4A95E2F7262B1D
S1131070FC01218315C084E090E024E030E0F90114
S11310802181622F2981422F50E021E030E002C00B
S1131090220F331F4A95E2F720952623FC01218372
S11310A000000F900F90DF91CF910895CF93DF93BD
S11310B000D000D0CDB7DEB78B836C838B81882FB3
S11310C090E0805B9B4F89839A838C81813059F4B3
S11310D089819A81FC018081282F286089819A81E5
S11310E0FC0120830DC08C81882351F489819A816D
S11310F0FC018081282F277F89819A81FC0120832C
S113110000002496CDBFDEBFDF91CF910895CF9329
S1131110DF9300D000D0CDB7DEB78B836C838B8197
S1131120882F90E0805B9B4F89839A838C818823EE
S113113059F089819A81FC018081282F2068898156
S11311409A81FC0120830AC089819A81FC018081F3
S1131150282F2F7789819A81FC012083000024960F
S1131160CDBFDEBFDF91CF910895CF93DF9300D041
S113117000D0CDB7DEB78B836C838B81882F90E052
S1131180805B9B4F89839A8389819A81FC0180814A
S1131190982F987F8C81892B282F89819A81FC0133
S11311A0208300002496CDBFDEBFDF91CF91089548
S11311B0CF93DF9300D0CDB7DEB789836A838A816A
S11311C0882F90E081309105E1F08230910571F132
S11311D0892B09F03BC088E090E028E030E0F90179
S11311E02081622F2981422F50E021E030E002C0AB
S11311F0220F331F4A95E2F720952623FC01208312
S113120025C088E090E028E030E0F9012081622FD9
S11312102981422F50E021E030E002C0220F331F29
S11312204A95E2F7262BFC01208310C08981882F80
S113123090E0805B9B4F2981222F30E0205B3B4F65
S1131240F90120812860FC012083000000000F9038
S11312500F90DF91CF910895CF93DF9300D0CDB756
S1131260DEB789836A838A818823A9F088E090E0C5
S113127028E030E0F9012181622F2981422F50E0DA
S113128021E030E002C0220F331F4A95E2F7262BFB
S1131290FC01218315C088E090E028E030E0F901EA
S11312A02181622F2981422F50E021E030E002C0E9
S11312B0220F331F4A95E2F720952623FC01218350
S11312C000000F900F90DF91CF910895CF93DF939B
S11312D01F92CDB7DEB78983698182E00E94090736
S11312E000000F90DF91CF910895CF93DF931F9269
S11312F0CDB7DEB78983698182E00E945D07000073
S11313000F90DF91CF910895CF93DF931F92CDB7C4
S1131310DEB78983698183E00E94090700000F908A
S1131320DF91CF910895CF93DF931F92CDB7DEB7AE
S11313308983698183E00E945D0700000F90DF913B
S1131340CF910895CF93DF931F92CDB7DEB78983F2
S1131350698184E00E94090700000F90DF91CF911A
S11313600895CF93DF931F92CDB7DEB78983698148
S113137084E00E945D0700000F90DF91CF910895F3
S1131380CF93DF931F92CDB7DEB78983698185E060
S11313900E94D80600000F90DF91CF910895CF935B
S11313A0DF931F92CDB7DEB78983698185E00E9400
S11313B0090700000F90DF91CF910895CF93DF9339
S11313C01F92CDB7DEB78983698186E00E94090741
S11313D000000F90DF91CF910895CF93DF931F9278
S11313E0CDB7DEB78983698186E00E945D0700007E
S11313F00F90DF91CF910895CF93DF931F92CDB7D4
S1131400DEB78983698187E00E94090700000F9095
S1131410DF91CF910895CF93DF931F92CDB7DEB7BD
S11314208983698187E00E945D0700000F90DF9146
S1131430CF910895CF93DF931F92CDB7DEB7898301
S1131440698182E00E94970700000F90DF91CF919D
S11314500895CF93DF931F92CDB7DEB78983698157
S113146082E00E94C80700000F90DF91CF91089599
S1131470CF93DF931F92CDB7DEB78983698185E06F
S11314800E94C80700000F90DF91CF910895CF9379
S1131490DF931F92CDB7DEB78983698185E00E940F
S11314A01C0800000F90DF91CF910895CF93DF9334
S11314B01F92CDB7DEB78983698180E00E94D80886
S11314C000000F90DF91CF910895CF93DF931F9287
S11314D0CDB7DEB78983698180E00E942C090000C2
S11314E00F90DF91CF910895CF93DF931F92CDB7E3
S11314F0DEB78983698181E00E94560800000F905D
S1131500DF91CF910895CF93DF931F92CDB7DEB7CC
S11315108983698181E00E94D80800000F90DF91DF
S1131520CF910895CF93DF931F92CDB7DEB7898310
S1131530698186E00E94560800000F90DF91CF91E8
S11315400895CF93DF931F92CDB7DEB78983698166
S113155086E00E94D80800000F90DF91CF91089593
S1131560CF93DF931F92CDB7DEB78983698186E07D
S11315700E94B50800000F90DF91CF910895CF939A
S1131580DF931F92CDB7DEB78983698186E00E941D
S1131590870800000F90DF91CF910895CF93DF93D8
S11315A01F92CDB7DEB78983698186E00E942C093A
S11315B000000F90DF91CF910895CF93DF931F9296
S11315C0CDB7DEB78983698187E00E94D80800001F
S11315D00F90DF91CF910895CF93DF931F92CDB7F2
S11315E0DEB78983698187E00E942C0900000F908F
S11315F0DF91CF910895CF93DF93CDB7DEB72697D0
S1131600CDBFDEBF198212C08981882F90E0805F30
S11316109B4F2981222F30E0205F3B4FF90120812D
S11316202860FC01208389818F5F898389818830C8
S113163058F31A8212C08A81882F90E0805D9B4FF4
S11316402A81222F30E0205D3B4FF9012081286060
S1131650FC0120838A818F5F8A838A81883058F3D2
S11316601B8212C08B81882F90E0805B9B4F2B8163
S1131670222F30E0205B3B4FF90120812860FC01E0
S113168020838B818F5F8B838B81883058F31C82FE
S113169012C08C81882F90E080599B4F2C81222F7F
S11316A030E020593B4FF90120812860FC01208360
S11316B08C818F5F8C838C81883058F31D8212C09B
S11316C08D81882F90E080579B4F2D81222F30E011
S11316D020573B4FF90120812860FC0120838D8134
S11316E08F5F8D838D81883058F31E8212C08E8166
S11316F0882F90E080559B4F2E81222F30E020557B
S11317003B4FF90120812860FC0120838E818F5F8B
S11317108E838E81883058F300002696CDBFDEBFBD
S1131720DF91CF910895CF93DF93CDB7DEB780E0FB
S11317300E94830A80E00E94740A81E00E94560A93
S113174081E00E94650A0E941F0E0000DF91CF9184
S11317500895CF93DF93CDB7DEB780E00E94CF0921
S113176080E00E94C00981E00E94A20980E00E94FA
S1131770B10981E00E94DE0980E00E94ED090E9427
S1131780210C0000DF91CF910895CF93DF93CDB763
S1131790DEB70E94FB0A0E94C3060E94930B81E0FD
S11317A00E94660980E00E94750981E00E94840914
S11317B080E00E94930981E00E94FC0981E00E947C
S11317C00B0A80E00E94290A81E00E941A0A81E043
S11317D00E94380A80E00E94470A80E00E94A10A21
S11317E080E00E94CE0A81E00E94920A80E00E947A
S11317F0BF0A83E00E94B00A81E00E94DD0A80E013
S11318000E94EC0A0E94C3060E94710C0E94930B72
S11318100E94A90B0E94D0060E94190C0E94A506E2
S11318200000DF91CF9108951BBEFC0164BF40838B
S11318300895CF93DF93CDB7DEB780E0DF91CF91EA
S11318400895CF93DF93CDB7DEB780EC98E021E322
S1131850FC0120831092FD2D0000DF91CF910895AB
S1131860CF93DF93CDB7DEB780EC98E020EC38E07F
S1131870F90120812160FC0120830000DF91CF91D8
S11318800895CF93DF931F92CDB7DEB7898300000D
S11318908091FD2D8230E1F380EC98E02981FC01F8
S11318A02483000080EC98E0FC0183818823D4F732
S11318B080EC98E0FC0184810F90DF91CF91089532
S11318C0CF93DF9300D0CDB7DEB789839A8380E0CE
S11318D090E0DC01BC01CD010F900F90DF91CF911E
S11318E00895CF93DF93CDB7DEB7000080E491E095
S11318F0FC0181818823D1F780E491E021E0FC019F
S1131900208380E491E021E0FC01278380E491E0DE
S113191021E0FC0122830000DF91CF910895CF9351
S1131920DF93CDB7DEB780E491E020E431E0F90144
S113193022812E7FFC0122831092022E1092032E0C
S11319401092042E1092052E10920A2E0000DF91A0
S1131950CF910895EF92FF920F931F93CF93DF934C
S113196000D000D0CDB7DEB769837A838B839C83A4
S11319702FEF3FEF40E050E089819A81AB81BC8139
S113198079018A01E81AF90A0A0B1B0BD801C7016D
S11319908093062E9093072EA093082EB093092EC1
S11319A020E431E08091062E9091072EA091082E1C
S11319B0B091092EF90180879187000080E491E0BD
S11319C0FC018181882F90E082709927892BB1F7DF
S11319D000002496CDBFDEBFDF91CF911F910F9100
S11319E0FF90EF900895CF93DF9300D000D0CDB750
S11319F0DEB780E491E020E431E0F90122812E7F1A
S1131A00FC0122838091FE2D9091FF2D892B19F4E6
S1131A100E948F0C68C08091FE2D9091FF2D892B20
S1131A2051F08091FE2D9091FF2DFC0186819781CC
S1131A30A085B18503C080E090E0DC012091022EF6
S1131A403091032E4091042E5091052E821B930B4E
S1131A50A40BB50B89839A83AB83BC8389819A8158
S1131A60AB81BC810097A140B10548F18091022E61
S1131A709091032EA091042EB091052E0197AF4FA3
S1131A80BF4F80933F2890934028A0934128B09360
S1131A9042288091FE2D9091FF2D80933D289093B4
S1131AA03E2889E398E28093FE2D9093FF2D8FEFDB
S1131AB09FEFA0E0B0E089839A83AB83BC838981E4
S1131AC09A81AB81BC81BC01CD010E94AA0C80E447
S1131AD091E020E431E0F90122812160FC012283BC
S1131AE081E080930A2E2496CDBFDEBFDF91CF9193
S1131AF00895CF93DF9300D000D0CDB7DEB78B83AA
S1131B009C838B819C81FC01148215828091002E20
S1131B109091012E892B39F48B819C818093002E26
S1131B209093012E1CC08091002E9091012E8983E8
S1131B309A8307C089819A81FC0184819581898374
S1131B409A8389819A81FC0184819581892B91F7FB
S1131B5089819A812B813C81FC01248335832496DD
S1131B60CDBFDEBFDF91CF9108951F920F920090F9
S1131B703F000F9211242F933F934F935F936F93E2
S1131B807F938F939F93AF93BF93EF93FF93CF93E1
S1131B90DF9300D0CDB7DEB78091FE2D9091FF2D5D
S1131BA0FC018481958189839A838091FE2D909193
S1131BB0FF2DFC0186819781A085B1858093022E3B
S1131BC09093032EA093042EB093052E1092062E0C
S1131BD01092072E1092082E1092092E8091FE2D3D
S1131BE09091FF2D8953984231F08091FE2D909170
S1131BF0FF2D0E94790D89819A818093FE2D909307
S1131C00FF2D0E94F30C80E491E021E0FC0123838A
S1131C1000000F900F90DF91CF91FF91EF91BF9152
S1131C20AF919F918F917F916F915F914F913F9170
S1131C302F910F9000923F000F901F901895CF9313
S1131C40DF93CDB7DEB780E298E02CE232E0FC010E
S1131C502087318780E298E020ECFC01268380E035
S1131C60DF91CF910895CF93DF931F92CDB7DEB765
S1131C708983000080E298E0FC018481882F90E051
S1131C8080729927892BB1F380E298E02981FC01C5
S1131C90228300000F90DF91CF910895CF93DF93BB
S1131CA000D0CDB7DEB789836A838A81882F90E01C
S1131CB081309105E1F08230910571F1892B09F0B1
S1131CC03BC020E030E080E090E0FC018081682FA0
S1131CD08981482F50E081E090E002C0880F991F6D
S1131CE04A95E2F780958623F901808325C020E098
S1131CF030E080E090E0FC018081682F8981482FEA
S1131D0050E081E090E002C0880F991F4A95E2F705
S1131D10862BF901808310C08981882F90E0805F31
S1131D209B4F2981222F30E0205F3B4FF901208116
S1131D302860FC012083000000000F900F90DF91C9
S1131D40CF910895CF93DF9300D0CDB7DEB78983C9
S1131D506A838A818823A9F020E030E080E090E063
S1131D60FC018181682F8981482F50E081E090E057
S1131D7002C0880F991F4A95E2F7862BF9018183E7
S1131D8015C020E030E080E090E0FC018181682F04
S1131D908981482F50E081E090E002C0880F991FAC
S1131DA04A95E2F780958623F901818300000F901C
S1131DB00F90DF91CF910895CF93DF9300D000D09F
S1131DC0CDB7DEB78B836C838B81882F90E0805BEB
S1131DD09B4F89839A838C81813059F489819A81BC
S1131DE0FC018081282F286089819A81FC0120834D
S1131DF00DC08C81882351F489819A81FC018081F2
S1131E00282F277F89819A81FC0120830000249652
S1131E10CDBFDEBFDF91CF910895CF93DF9300D084
S1131E2000D0CDB7DEB78B836C838B81882F90E095
S1131E30805B9B4F89839A8389819A81FC0180818D
S1131E40982F987F8C81892B282F89819A81FC0176
S1131E50208300002496CDBFDEBFDF91CF9108958B
S1131E60CF93DF9300D0CDB7DEB789836A838A81AD
S1131E70882F90E081309105E1F08230910571F175
S1131E80892B09F03BC088E090E028E030E0F901BC
S1131E902081622F2981422F50E021E030E002C0EE
S1131EA0220F331F4A95E2F720952623FC01208355
S1131EB025C088E090E028E030E0F9012081622F1D
S1131EC02981422F50E021E030E002C0220F331F6D
S1131ED04A95E2F7262BFC01208310C08981882FC4
S1131EE090E0805B9B4F2981222F30E0205B3B4FA9
S1131EF0F90120812860FC012083000000000F907C
S1131F000F90DF91CF910895CF93DF9300D0CDB799
S1131F10DEB789836A838A818823A9F088E090E008
S1131F2028E030E0F9012181622F2981422F50E01D
S1131F3021E030E002C0220F331F4A95E2F7262B3E
S1131F40FC01218315C088E090E028E030E0F9012D
S1131F502181622F2981422F50E021E030E002C02C
S1131F60220F331F4A95E2F720952623FC01218393
S1131F7000000F900F90DF91CF910895CF93DF93DE
S1131F801F92CDB7DEB7898388E090E0FC0182819F
S1131F90282F30E08981482F50E081E090E002C092
S1131FA0880F991F4A95E2F78223932321E0892B16
S1131FB009F420E0822F0F90DF91CF910895CF9301
S1131FC0DF931F92CDB7DEB78983698182E00E94D7
S1131FD04E0E00000F90DF91CF910895CF93DF93C1
S1131FE01F92CDB7DEB78983698182E00E94A20E79
S1131FF000000F90DF91CF910895CF93DF931F924C
S1132000CDB7DEB78983698183E00E944E0E00005C
S11320100F90DF91CF910895CF93DF931F92CDB7A7
S1132020DEB78983698186E00E94DC0E00000F9090
S1132030DF91CF910895CF93DF931F92CDB7DEB791
S11320408983698186E00E94300F00000F90DF9140
S1132050CF910895CF93DF931F92CDB7DEB78983D5
S1132060698186E00E940D0F00000F90DF91CF91EF
S11320700895CF93DF93CDB7DEB786E00E94BE0FFD
S1132080DF91CF910895CF93DF931F92CDB7DEB741
S11320908983698187E00E94300F00000F90DF91EF
S11320A0CF910895CF93DF931F92CDB7DEB7898385
S11320B0698187E00E94840F00000F90DF91CF9127
S11320C008951F920F9200903F000F9211242F93B6
S11320D03F934F935F936F937F938F939F93AF93AC
S11320E0BF93EF93FF93CF93DF93CDB7DEB70E94F7
S11320F03910982F81E08927882361F080910B2E75
S113210090910C2E892B31F080910B2E90910C2EF6
S1132110FC0109958BE090E020ECFC012083000099
S1132120DF91CF91FF91EF91BF91AF919F918F91EB
S11321307F916F915F914F913F912F910F900092FA
S11321403F000F901F901895CF93DF93CDB7DEB764
S113215081E00E94DF0F81E00E94431081E00E9431
S1132160FD0F0000DF91CF910895CF93DF93CDB79A
S1132170DEB710920B2E10920C2E0E94A4100E9417
S1132180C610789480E0DF91CF910895CF93DF93C8
S1132190CDB7DEB780E00E94521080E00E94EE0FBF
S11321A061E070E080E090E00E94E61081E00E942F
S11321B052106AE070E080E090E00E94E61081E056
S11321C00E94EE0F0000DF91CF910895CF93DF932B
S11321D0CDB7DEB76297CDBFDEBF6F87788B898BB3
S11321E09A8B72C080E090E0A0E8BFE389839A8371
S11321F0AB83BC8320E030E44CE155E469817A810F
S11322008B819C810E94CF3ADC01CB018D839E831C
S1132210AF83B88720E030E040E85FE36D817E81E2
S11322208F8198850E946B3988232CF481E090E09B
S113223089879A873FC020E03FEF4FE757E46D81DD
S11322407E818F8198850E94CA3A18164CF520E049
S113225030E040E251E469817A818B819C810E9463
S1132260CF3ADC01CB01BC01CD010E94E939DC018C
S1132270CB0189879A870FC08AEF90E08B879C8770
S11322808B859C850197F1F78B879C8789859A8537
S1132290019789879A8789859A85892B69F714C05C
S11322A06D817E818F8198850E94E939DC01CB01A3
S11322B089879A8789859A858D879E878D859E854E
S11322C00197F1F78D879E878F859889A989BA89A7
S11322D09C01AD0121503109410951092F87388BE7
S11322E0498B5A8B892B8A2B8B2B09F07BCF0000CF
S11322F06296CDBFDEBFDF91CF910895CF93DF9378
S113230000D0CDB7DEB789839A8389819A8180937F
S11323100B2E90930C2E80E00E941B1081E00E94F3
S11323200C1083E00E942A1083E00E942A10789403
S113233000000F900F90DF91CF910895CF93DF931A
S11323401F92CDB7DEB789838981882321F083E08A
S11323500E942A1003C080E00E942A1000000F90FF
S1132360DF91CF910895CF93DF9300D0CDB7DEB73F
S113237089836A838A81882F90E081309105E1F016
S11323808230910571F1892B09F03BC020E030E0E7
S113239080E090E0FC018081682F8981482F50E023
S11323A081E090E002C0880F991F4A95E2F780957A
S11323B08623F901808325C020E030E080E090E0AE
S11323C0FC018081682F8981482F50E081E090E0F2
S11323D002C0880F991F4A95E2F7862BF901808382
S11323E010C08981882F90E0805F9B4F2981222F24
S11323F030E0205F3B4FF90120812860FC012083FD
S1132400000000000F900F90DF91CF910895CF93BB
S1132410DF9300D0CDB7DEB789836A838A818823AE
S1132420A9F020E030E080E090E0FC018181682F99
S11324308981482F50E081E090E002C0880F991F05
S11324404A95E2F7862BF901818315C020E030E03C
S113245080E090E0FC018181682F8981482F50E061
S113246081E090E002C0880F991F4A95E2F78095B9
S11324708623F901818300000F900F90DF91CF91A3
S11324800895CF93DF931F92CDB7DEB78983698117
S113249084E00E94B31100000F90DF91CF91089562
S11324A0CF93DF931F92CDB7DEB78983698184E030
S11324B00E94071200000F90DF91CF910895CF93EF
S11324C0DF931F92CDB7DEB78983698185E00E94CF
S11324D0B31100000F90DF91CF910895CF93DF9354
S11324E01F92CDB7DEB78983698186E00E94B3115C
S11324F000000F90DF91CF910895CF93DF931F9247
S1132500CDB7DEB78983698186E00E940712000097
S11325100F90DF91CF910895CF93DF931F92CDB7A2
S1132520DEB78983698187E00E94B31100000F90B0
S1132530DF91CF910895CF93DF931F92CDB7DEB78C
S11325408983698187E00E94071200000F90DF9160
S1132550CF910895CF93DF93CDB7DEB72D97CDBF3D
S1132560DEBF888799876A877B874C875D871F8250
S113257019821A821B821C821D821E82888599857B
S1132580892B39F4CE0107968887998781E089835E
S11325900DC08A859B85892B39F4CE0107968A87DD
S11325A09B8781E08A8302C08AEF34C080E00E9466
S11325B09B1228C088859985FC018081882F90E032
S11325C08B839C838B819C810E94410C8D839E8391
S11325D02D818A859B85FC0120838C859D850197AF
S11325E08C879D878A81882329F48A859B85019617
S11325F08A879B878981882329F488859985019610
S1132600888799878C859D85892BA1F681E00E9416
S11326109B1280E02D96CDBFDEBFDF91CF91089550
S1132620CF93DF9300D01F92CDB7DEB78A839B830D
S1132630198281E00E948C1281E00E949B1281E049
S11326400E94411281E00E94501280E00E945F12B9
S113265081E00E946E1280E00E947D120E94210C93
S11326600E94300C0E94C61061E070E080E090E0AF
S11326700E94E61089812396CDBFDEBFDF91CF9102
S11326800895CF93DF93CDB7DEB72697CDBFDEBFD6
S11326908C836D837E8319828C81882F90E00397CD
S11326A0C1F48D819E818A839B838A819B81FC01F5
S11326B0448155818A819B81FC01228133818A81F5
S11326C09B81FC0180819181B9010E94AA128983B6
S11326D003C08FEF8983000089812696CDBFDEBFBA
S11326E0DF91CF910895CF93DF93CDB7DEB780E02C
S11326F0DF91CF910895CF93DF93CDB7DEB72897BD
S1132700CDBFDEBF89839A836B837C832D833E8315
S11327104F8358878D819E81AF81B885892B8A2B01
S11327208B2B31F18B819C81FC01208189819A81E1
S1132730FC01208389819A81019689839A838B8104
S11327409C8101968B839C838D819E81AF81B8850A
S11327500197A109B1098D839E83AF83B8878D81C9
S11327609E81AF81B885892B8A2B8B2BD9F601C02A
S113277000002896CDBFDEBFDF91CF910895CF939F
S1132780DF93CDB7DEB72797CDBFDEBF89839A83AA
S11327906B832C833D834E835F838C819D81AE81CB
S11327A0BF81892B8A2B8B2BF1F089819A812B8114
S11327B0FC01208389819A81019689839A838C8183
S11327C09D81AE81BF810197A109B1098C839D834D
S11327D0AE83BF838C819D81AE81BF81892B8A2B7F
S11327E08B2B19F701C000002796CDBFDEBFDF9108
S11327F0CF910895CF93DF9300D000D0CDB7DEB74B
S11328008B839C8319821A820AC089819A810196DA
S113281089839A838B819C8101968B839C838B8192
S11328209C81FC018081882381F789819A81249687
S1132830CDBFDEBFDF91CF910895CF93DF93CDB7A6
S1132840DEB78091912E8F5F8093912E0000DF91EF
S1132850CF910895CF93DF93CDB7DEB72597CDBF42
S1132860DEBF19821092902E81E00E949E11CE014B
S11328700296AC0160E770E180E090E00E94F823EA
S1132880898389818823B9F48A819B81AC81BD8144
S113289082608A839B83AC83BD838A819B81AC8164
S11328A0BD819C01AD0160E770E180E090E00E9491
S11328B01624898301C0000089812596CDBFDEBF1F
S11328C0DF91CF910895CF93DF93CDB7DEB72797EC
S11328D0CDBFDEBF89836A837B832C833D834E8394
S11328E05F8300002796CDBFDEBFDF91CF910895AF
S11328F0CF93DF931F92CDB7DEB719828091902ECC
S1132900882311F0898116C080918F2E882351F479
S113291080918E2E882331F00E942721898389811A
S1132920882331F480918F2E8F5F80938F2E01C086
S1132930000089810F90DF91CF910895CF93DF93A9
S1132940CDB7DEB780918F2E882329F080918F2E0A
S1132950815080938F2E80E0DF91CF910895CF93A3
S1132960DF931F92CDB7DEB7198280918F2E882313
S113297029F080918F2E815080938F2E80918F2EFD
S1132980882339F480918E2E882319F00E94922096
S1132990898389810F90DF91CF910895CF93DF933D
S11329A000D0CDB7DEB789839A832AE130E040E0D6
S11329B050E060E08EE89EE20E94BF138DE194E156
S11329C00E947E1163E674E183E00E94611980E055
S11329D00F900F90DF91CF910895CF92DF92EF92F5
S11329E0FF920F931F93CF93DF93CDB7DEB76F970B
S11329F0CDBFDEBF8C8B6D8B4E8B5F8B288F398F59
S1132A000A8F1B8FEC8EFD8ECE8EDF8E8FEF898327
S1132A108D898F778B838C898A8388E090E08C837F
S1132A209D838A8D9B8D892B69F02C813D814E8DF0
S1132A305F8D8C8D9D8D840F951F820F931F8C83CA
S1132A409D8308C02C813D81888D998D820F931FB1
S1132A508C839D830E94781489838981882309F05B
S1132A60A6C11A861B861C861D861E861F861E828C
S1132A701F82188619868C89282F30E040E050E0A8
S1132A808E819F81A885B985822B932BA42BB52B8E
S1132A908E839F83A887B9878D89882F90E0A0E0D3
S1132AA0B0E02227382F492F5A2F8E819F81A88585
S1132AB0B985822B932BA42BB52B8E839F83A88758
S1132AC0B9878C819D81CC01A0E0B0E0AC013327B3
S1132AD022278E819F81A885B985822B932BA42BD5
S1132AE0B52B8E839F83A887B9878E819F81A88504
S1132AF0B9859C01AD016CE870E180E090E00E9432
S1132B00162489838981882309F045C11E821F8286
S1132B10188619868E819F81A885B98582608E83E7
S1132B209F83A887B9878E819F81A885B9859C01D9
S1132B30AD0168E770E180E090E00E94162489838B
S1132B408981882309F029C11A861B861C861D8663
S1132B501E861F863DC0CE010696AC0168E770E173
S1132B6080E090E00E94F823898389818823B9F565
S1132B708E859F85843F914040F08E859F8561E0DE
S1132B8070E080E090E00E94E6108E819F81A8852D
S1132B90B98582709927AA27BB27892B8A2B8B2B6F
S1132BA091F4CE010A96AC0160E074E085E190E016
S1132BB00E94F82389838981882399F01A861B86C9
S1132BC01C861D86F1C08E859F8501968E879F8702
S1132BD08E859F85883E934008F4BDCF03C00000D6
S1132BE001C000008A859B85AC85BD85892B8A2B15
S1132BF08B2B09F4C5C08A859B85AC85BD85888BE4
S1132C00998BAA8BBB8B8C819D818C839D838889B6
S1132C109989AA89BB89AE014E5F5F4F08E010E035
S1132C2020E030E0BC01CD010E941B25898389810D
S1132C30882309F0B4C088899989AA89BB89089630
S1132C40A11DB11D888B998BAA8BBB8B8E899F8903
S1132C50892B41F1888D998D9C0140E050E0888951
S1132C609989AA89BB896E897F8989019A01AB01F7
S1132C70BC01CD010E941B2589838981882309F029
S1132C8090C0888D998D9C0140E050E08889998995
S1132C90AA89BB89820F931FA41FB51F888B998BA8
S1132CA0AA8BBB8B8A8D9B8D892B09F43FC02E8DFB
S1132CB03F8D888D998DA901481B590BCA019C0130
S1132CC040E050E088899989AA89BB89820F931FC3
S1132CD0A41FB51F888B998BAA8BBB8B8C8D9D8D64
S1132CE09C0140E050E088899989AA89BB896A8D52
S1132CF07B8D89019A01AB01BC01CD010E941B258A
S1132D0089838981882309F04EC08C8D9D8D9C0117
S1132D1040E050E088899989AA89BB89820F931F72
S1132D20A41FB51F888B998BAA8BBB8B8A859B8527
S1132D30AC85BD85880F991FAA1FBB1F880F991FDB
S1132D40AA1FBB1F8E839F83A887B9878E819F810B
S1132D50A885B98582608E839F83A887B9878E8171
S1132D609F81A885B9859C01AD016CE670E180E086
S1132D7090E00E94162489838981882339F014C045
S1132D800E94AF1489838DEF898312C00E94AF140F
S1132D90898389810EC0000007C0000005C00000BF
S1132DA003C0000001C000000E949E1401C0000086
S1132DB089816F96CDBFDEBFDF91CF911F910F91B7
S1132DC0FF90EF90DF90CF9008950F931F93CF93D0
S1132DD0DF93CDB7DEB72F97CDBFDEBF1982CE010B
S1132DE00496AC0160E770E180E090E00E94F82373
S1132DF089838981882309F070C18C819D81AE818A
S1132E00BF8181709927AA27BB27892B8A2B8B2BFB
S1132E1009F460C180E00E949E118C819D81AE8185
S1132E20BF818E7F8C839D83AE83BF838C819D8184
S1132E30AE81BF819C01AD0160E770E180E090E06C
S1132E400E94162489838981882309F048C181E07E
S1132E508093902E8C819D81AE81BF81B695A7957C
S1132E6097958795B695A795979587959F708A832B
S1132E709B838A819B81892B09F429C11C861D8629
S1132E801E861F86CE010C96AC0164E870E180E0DA
S1132E9090E00E94F82389838981882321F081E0CE
S1132EA00E949E111DC18C859D85AE85BF85809332
S1132EB0922E9093932EA093942EB093952E8A8164
S1132EC09B81CC01A0E0B0E08093962E9093972E46
S1132ED0A093982EB093992E8C859D85AE85BF8541
S1132EE0AE01485F5F4F04E010E020E030E0BC0139
S1132EF0CD010E94582489838A859B858A879B8774
S1132F008981882321F081E00E949E11E9C02A85ED
S1132F103B858A819B812817390781F08A859B85A7
S1132F202A813B81A901481B590BCA01059730F03E
S1132F3081E00E949E118AEF8983D2C08885813006
S1132F40E9F480919A2E90919B2E892B09F4B7C0B5
S1132F50E0919A2EF0919B2E8C859D85AE85BF8540
S1132F600896A11DB11D2A853B85B90168507109D8
S1132F7019859C01AD01812F0995A1C088858230F6
S1132F80E9F480919C2E90919D2E892B09F497C091
S1132F90E0919C2EF0919D2E8C859D85AE85BF85FC
S1132FA00896A11DB11D2A853B85B9016850710998
S1132FB019859C01AD01812F099581C088858430D4
S1132FC0E9F480919E2E90919F2E892B09F477C06D
S1132FD0E0919E2EF0919F2E8C859D85AE85BF85B8
S1132FE00896A11DB11D2A853B85B9016850710958
S1132FF019859C01AD01812F099561C088858630B2
S1133000E9F48091A42E9091A52E892B09F457C040
S1133010E091A42EF091A52E8C859D85AE85BF856B
S11330200896A11DB11D2A853B85B9016850710917
S113303019859C01AD01812F099541C08885873090
S1133040E1F48091A02E9091A12E892BC1F1E09101
S1133050A02EF091A12E8C859D85AE85BF85089606
S1133060A11DB11D2A853B85B901685071091985D7
S11330709C01AD01812F099522C088858530E1F43A
S11330808091A62E9091A72E892BC9F0E091A62EAF
S1133090F091A72E8C859D85AE85BF850896A11DD0
S11330A0B11D2A853B85B9016850710919859C01B8
S11330B0AD01812F099503C08AEF898311C08091E6
S11330C0902E882369F00E942A14898309C08EEF08
S11330D0898306C084EF898303C0000001C0000017
S11330E089812F96CDBFDEBFDF91CF911F910F91C4
S11330F00895CF93DF931F92CDB7DEB719820BC02B
S11331008091912E81508093912E0E94E51689839F
S113311089818823D1F78091912E882389F7898129
S11331200F90DF91CF910895EF92FF920F931F9329
S1133130CF93DF93CDB7DEB72A97CDBFDEBF6A83C7
S11331407B838C839D834E835F83288739870A879B
S113315019828A819B81AC81BD81892B8A2B8B2B1F
S113316041F08E819F81892B21F088859985892B57
S113317051F48A85882321F00E942A14898396C0F9
S113318084EF898393C0888599859C0140E050E051
S11331908091962E9091972EA091982EB091992E71
S11331A082179307A407B50718F484EF89837EC0B8
S11331B02091922E3091932E4091942E5091952EE1
S11331C08A819B81AC81BD8182179307A407B507CF
S11331D030F1888599859C0140E050E08A819B818B
S11331E0AC81BD81280F391F4A1F5B1FE090922ECE
S11331F0F090932E0091942E1091952E8091962EFE
S11332009091972EA091982EB091992E8E0D9F1D7E
S1133210A01FB11F82179307A407B50718F484EF02
S1133220898344C0888599859C0140E050E06E8183
S11332307F818A819B81AC81BD8189019A01AB0127
S1133240BC01CD010E94582489838981882369F5B2
S11332502091922E3091932E4091942E5091952E40
S11332608091962E9091972EA091982EB091992EA0
S1133270280F391F4A1F5B1F888599857C0100E050
S113328010E08A819B81AC81BD818E0D9F1DA01FA2
S1133290B11F281739074A075B0719F08A85882365
S11332A029F00E942A14898301C0000089812A968A
S11332B0CDBFDEBFDF91CF911F910F91FF90EF90B3
S11332C00895CF93DF9300D000D0CDB7DEB78A83C3
S11332D06B837C8319828A81882F90E0092E000CED
S11332E0AA0BBB0B41E050E026E030E0841B950BB9
S11332F028173907B0F1805B9F4FFC010C94503BB9
S11333008B819C8180939C2E90939D2E2DC08B81CC
S11333109C8180939A2E90939B2E26C08B819C81B6
S113332080939E2E90939F2E1FC08B819C818093AF
S1133330A22E9093A32E18C08B819C818093A42EDF
S11333409093A52E11C08B819C818093A02E909385
S1133350A12E0AC08B819C818093A62E9093A72EC8
S113336003C084EF8983000089812496CDBFDEBF2A
S1133370DF91CF9108950F93CF93DF93CDB7DEB74D
S1133380C55AD109CDBFDEBFFE01E156FF4F808390
S1133390CE0180569F4FFC0160837183CE018E5510
S11333A09F4FFC012083318342835383CE01815696
S11333B09F4FFC0180818C3239F5AE01475F5F4F2E
S11333C0CE018E559F4FFC0180819181A281B381F2
S11333D000E024E030E0BC01CD010E949418882371
S11333E009F062C280910F2E9091102E892B09F45E
S11333F05BC220910F2E3091102ECE010996BC0194
S11334008CE2F901099550C2CE0181569F4FFC010F
S113341080818B3139F5AE01435F5F4FCE018E550C
S11334209F4FFC0180819181A281B38100E028E05B
S113343030E0BC01CD010E949418882309F034C205
S113344080910F2E9091102E892B09F42DC220917A
S11334500F2E3091102ECE010D96BC018BE1F90197
S1133460099522C2CE0181569F4FFC01808186308E
S113347039F5AE01455C5F4FCE018E559F4FFC017F
S113348080819181A281B38101E020E330E0BC011D
S1133490CD010E949418882309F006C280910F2E52
S11334A09091102E892B09F4FFC120910F2E309199
S11334B0102ECE01CB96BC0186E0F9010995F4C12A
S11334C0CE0181569F4FFC0180818E3009F4ECC1FE
S11334D0CE0181569F4FFC018081823339F5AE01C4
S11334E04B5E5F4FCE018E559F4FFC0180819181D1
S11334F0A281B38100E024E130E0BC01CD010E944F
S11335009418882309F0D0C180910F2E9091102E29
S1133510892B09F4C9C120910F2E3091102ECE01B0
S11335204596BC0182E3F9010995BEC1CE018156DD
S11335309F4FFC0180818F3281F5CE01CB9624E62A
S113354030E040E050E060E00E94BF13AE01455C13
S11335505F4FCE018E559F4FFC0180819181A281E6
S1133560B38100E024E630E0BC01CD010E94941850
S1133570882309F099C180910F2E9091102E892BE8
S113358009F492C120910F2E3091102ECE01CB96CA
S1133590BC018FE2F901099587C1CE0181569F4F85
S11335A0FC018081843331F5AE01475D5F4FCE016C
S11335B08E559F4FFC0180819181A281B38100E0EF
S11335C024E030E0BC01CD010E949418882309F066
S11335D06BC180910F2E9091102E892B09F464C138
S11335E020910F2E3091102E60E070E084E3F901F9
S11335F009955AC1CE0181569F4FFC0180818131CA
S113360061F510920E2EAE01435D5F4FCE018E55D3
S11336109F4FFC0180819181A281B38100E024E06D
S113362030E0BC01CD010E949418882309F03CC10C
S11336308DA580930D2E80910F2E9091102E892BA5
S113364009F432C120910F2E3091102ECE018D96A7
S1133650BC0181E1F901099527C1CE0181569F4F33
S1133660FC018081833139F5AE01455C5F4FCE01A9
S11336708E559F4FFC0180819181A281B38100E02E
S11336802CE230E0BC01CD010E949418882309F09B
S11336900BC180910F2E9091102E892B09F404C137
S11336A020910F2E3091102ECE01CB96BC0183E1D8
S11336B0F9010995F9C0CE0181569F4FFC01808123
S11336C0843039F5CE018E559F4FFC018081918164
S11336D0A281B38100E024E030E0AE014F5F5F4F90
S11336E0BC01CD010E949418882309F0DDC08091AB
S11336F00F2E9091102E892B09F4D6C020910F2EF5
S11337003091102ECE010196BC0184E0F901099597
S1133710CBC0CE0181569F4FFC018081853639F59F
S1133720CE018E559F4FFC0180819181A281B3818E
S113373000E024E030E0AE014F5F5F4FBC01CD01FB
S11337400E949418882309F0AFC080910F2E9091A5
S1133750102E892B09F4A8C020910F2E3091102E21
S1133760CE010196BC0185E6F90109959DC0CE0103
S113377081569F4FFC018081893039F5AE01455C4B
S11337805F4FCE018E559F4FFC0180819181A281B4
S1133790B38101E024E630E0BC01CD010E9494181D
S11337A0882309F081C080910F2E9091102E892BCF
S11337B009F47AC020910F2E3091102ECE01CB96B1
S11337C0BC0189E0F90109956FC0CE0181569F4F74
S11337D0FC0180818A3239F5AE014F5C5F4FCE0126
S11337E08E559F4FFC0180819181A281B38101E0BC
S11337F024E030E0BC01CD010E949418882309F034
S113380053C080910F2E9091102E892B09F44CC037
S113381020910F2E3091102ECE01C196BC018AE268
S1133820F901099541C0CE0181569F4FFC01808169
S11338308032D1F5AE014B5C5F4FCE018E559F4F68
S1133840FC0180819181A281B38100E026E030E017
S1133850BC01CD010E949418882331F52FA938ADFD
S11338604DA95EA9CE018E559F4FFC0180819181A7
S1133870A281B3810696A11DB11D01E0BC01CD0159
S11338800E949418882381F480910F2E9091102E19
S1133890892B51F020910F2E3091102ECE01C59618
S11338A0BC0180E2F90109950000CB55DF4FCDBF83
S11338B0DEBFDF91CF910F910895CF93DF93CDB702
S11338C0DEB7AA97CDBFDEBF89A79AA7198281E088
S11338D088A789A59AA5892B19F484EF89832DC01B
S11338E089A59AA5FC018081918180930F2E9093E4
S11338F0102E10920E2ECE0188960E94B92689832E
S113390089818823C9F480E090E00E94CE148983E1
S11339108981882359F46BEB79E181E00E94611974
S1133920CE0102960E94BD25898307C0000080E075
S113393090E00E940C2701C000008981AA96CDBFA7
S1133940DEBFDF91CF910895CF93DF9300D0CDB741
S1133950DEB789839A830E9479180F900F90DF91C4
S1133960CF910895EF920F931F93CF93DF93CDB729
S1133970DEB72897CDBFDEBF89839A836B834C83E0
S11339802D833E830F8318874F8158852D813E8177
S113399089819A81E12C8A014C816B810E94D91C16
S11339A02896CDBFDEBFDF91CF911F910F91EF908D
S11339B00895CF92DF92EF92FF920F931F93CF93CC
S11339C0DF93CDB7DEB7C358D109CDBFDEBFFE014B
S11339D0E758FF4F80839183CE0185589F4FDC01C8
S11339E06C93CE0184589F4FFC014083CE018358D1
S11339F09F4FDC012D933C93CE0181589F4FFC01D6
S1133A0000831183CE018F579F4FDC01EC92198202
S1133A10CE0184589F4FFC018081813009F475C028
S1133A20CE0183589F4FDC018D919C91892B19F411
S1133A3084EF8983BDC1CE0184589F4FFC018081EE
S1133A40823009F062C0CE0183589F4FDC018D9112
S1133A509C910E94FA138034910509F056C01A8291
S1133A60CE0183589F4FFC01808191818B839C837D
S1133A7048C08A81882F90E02B813C81820F931F5C
S1133A80DC018C918033B8F18A81882F90E02B81FE
S1133A903C81820F931FFC0180818A3358F08A8114
S1133AA0882F90E02B813C81820F931FDC018C9145
S1133AB0813408F18A81882F90E02B813C81820F28
S1133AC0931FFC018081873458F08A81882F90E00D
S1133AD02B813C81820F931FDC018C91813658F03D
S1133AE08A81882F90E02B813C81820F931FFC01F7
S1133AF08081873618F084EF89835AC18A818F5F69
S1133B008A838A81803408F4B4CFCE0185589F4FCC
S1133B10DC018C91882339F0CE0185589F4FFC013C
S1133B208081813218F084EF898342C1CE018158AB
S1133B309F4FDC018D919C91892B41F0CE018158DE
S1133B409F4FFC01808191810F9760F0CE018158D5
S1133B509F4FDC018D919C918F3F910519F084EF6B
S1133B60898326C1CE0185589F4FFC018081882F0F
S1133B7090E0A0E0B0E09E0127583F4FF90160813A
S1133B8071819E01235F3F4FF901EA5BFF4F9C0166
S1133B90AD01CF010E947B13CE0185589F4FDC01FC
S1133BA08C91882F90E09E012D5A3F4F820F931FD6
S1133BB0FC011082CE018F5A9F4F9E0121583F4F26
S1133BC0D9012D913C91FC0120833183CE018F5783
S1133BD09F4F21E0DC018C91882309F420E0CE0181
S1133BE08C589F4FFC012083CE010D968D839E83BC
S1133BF08D819E818F5B9F4F9E0124583F4FD90139
S1133C002C91FC012083CE0184589F4FDC018C91C0
S1133C10833009F05FC0CE0183589F4FFC0180813F
S1133C2091818F8398878D819E8189879A878F81DF
S1133C309885DC018C912FEF280F89859A85FC01EA
S1133C40208389859A85DC018C91843018F084EF77
S1133C508983AEC08F819885FC0181812FEF280F65
S1133C6089859A85DC0111962C9389859A85FC01B6
S1133C7081818A3051F089859A85DC0111968C9175
S1133C808A3119F084EF898393C08F819885FC0170
S1133C908181882F90E0A0E0B0E02F813885B901C0
S1133CA06E5F7F4F29853A85F90132969C01AD01FB
S1133CB0CF010E947B138F819885DC0111968C9132
S1133CC0882F90E029853A85820F931F0296FC0184
S1133CD010825EC0CE0184589F4FDC018C918230EB
S1133CE0A9F5CE0183589F4FFC01808191810E94E8
S1133CF0FA138B879C878B859C85892B29F08B8570
S1133D009C858134910518F084EF898351C08B859B
S1133D109C850196CC01A0E0B0E0ED81FE81CE57F8
S1133D20DF4FE883F983C258D0409E0123583F4FA8
S1133D30F901608171819C01AD01CE57DF4F88810B
S1133D409981C258D0400E947B1322C0CE0184586E
S1133D509F4FDC018C91843089F4ED81FE81CE018A
S1133D6083589F4FDC018D919C912EE330E040E01D
S1133D7050E0BC01CF010E947B130AC0CE018458DD
S1133D809F4FFC018081813019F084EF898310C03A
S1133D90CE010D96C12CD12CE12CF12C00E010E0C9
S1133DA02CE630E0AC0168E281E00E94ED148983E6
S1133DB08981CD57DF4FCDBFDEBFDF91CF911F91FA
S1133DC00F91FF90EF90DF90CF900895CF93DF9302
S1133DD0CDB7DEB72D97CDBFDEBF6A877B878C87D3
S1133DE09D8719828A859B85AC85BD858A839B8343
S1133DF0AC83BD838A819B81AC81BD8191608A83C0
S1133E009B83AC83BD838A819B81AC81BD819C01F2
S1133E10AD0160EA74E180E090E00E9416248A819A
S1133E209B81AC81BD81892B8A2B8B2BF9F01E825F
S1133E301F8218861986CE010696AC0160EA74E1E9
S1133E4080E090E00E94F823898389818823D9F651
S1133E502E813F81488559858A819B81AC81BD81B2
S1133E60281739074A075B0719F0CDCF000001C0B6
S1133E70000080E02D96CDBFDEBFDF91CF91089585
S1133E80CF93DF93CDB7DEB72597CDBFDEBF1A82C0
S1133E901B821C821D821982CE010296AC0168E04D
S1133EA074E180E090E00E94F8238983898188236B
S1133EB0E9F58A819B81AC81BD8191608A839B8372
S1133EC0AC83BD838A819B81AC81BD819C01AD01A2
S1133ED068E074E180E090E00E941624898389817F
S1133EE0882331F5CE010296AC0160E07AE180E0EE
S1133EF090E00E94F823898389818823D9F48A81F8
S1133F009B81AC81BD81A1608A839B83AC83BD838B
S1133F108A819B81AC81BD819C01AD0160E07AE125
S1133F2080E090E00E941624898305C0000003C04D
S1133F30000001C0000089812596CDBFDEBFDF915E
S1133F40CF910895CF93DF9300D000D0CDB7DEB7E3
S1133F508091112E9091122EA091132EB091142EB7
S1133F60892B8A2B8B2B09F0CDC041E15EE260E006
S1133F7070E180E090E00E94F823882361F01092C1
S1133F80112E1092122E1092132E1092142E80E0E5
S1133F9090E0DC01BFC0CE010196AC0164EF73E197
S1133FA080E090E00E94F823882361F01092112EA3
S1133FB01092122E1092132E1092142E80E090E084
S1133FC0DC01A8C08091112E9091122EA091132E85
S1133FD0B091142E803A9240A041B105B1F4898188
S1133FE09A81AB81BC810197A105B10509F468C030
S1133FF081EA92E0A0E1B0E08093112E9093122E1A
S1134000A093132EB093142E5BC08091112E909127
S1134010122EA091132EB091142E803B9240A041F9
S1134020B10559F589819A81AB81BC810397A105BA
S1134030B10509F445C089819A81AB81BC8104979B
S1134040A105B10569F481EB92E0A0E1B0E08093B1
S1134050112E9093122EA093132EB093142E30C0D1
S113406082EB92E0A0E1B0E08093112E9093122EA7
S1134070A093132EB093142E23C08091112E9091EF
S1134080122EA091132EB091142E803F9105A041C1
S1134090B105B1F441E15EE260E070E08BE390E0F1
S11340A00E94F823882361F01092112E1092122E90
S11340B01092132E1092142E80E090E0DC012AC09E
S11340C08091112E9091122EA091132EB091142E46
S11340D0A07F8093112E9093122EA093132EB09351
S11340E0142E8091112E9091122EA091132EB09126
S11340F0142EA5608093112E9093122EA093132E4C
S1134100B093142E8091112E9091122EA091132E03
S1134110B091142EBC01CD012496CDBFDEBFDF913A
S1134120CF910895CF93DF93CDB7DEB72597CDBF59
S1134130DEBF1982CE010296AC0160E170E080E03E
S113414090E00E94F82389838981882309F071C053
S11341508A819B81AC81BD8181709927AA27BB2765
S1134160892B8A2B8B2B09F0E5CF0000CE01029618
S1134170AC0161E070E080E090E00E94F823898364
S11341808981882309F057C08A819B81AC81BD81D4
S113419082709927AA27BB27892B8A2B8B2BC9F0DE
S11341A08A819B81AC81BD818D7F8A839B83AC8313
S11341B0BD838A819B81AC81BD819C01AD0161E09D
S11341C070E080E090E00E9416248983898188232E
S11341D0A1F5CE010296AC016BE070E080E090E0C6
S11341E00E94F82389838981882349F58A819B81E8
S11341F0AC81BD8181709927AA27BB27892B8A2B83
S11342008B2BF1F08A819B81AC81BD818E7F8A8367
S11342109B83AC83BD838A819B81AC81BD819C01DE
S1134220AD016BE070E080E090E00E941624898389
S113423007C0000005C0000003C0000001C000006A
S113424089812596CDBFDEBFDF91CF910895CF93AD
S1134250DF93CDB7DEB72D97CDBFDEBF19821E82A7
S11342601F82188619861A861B861C861D861A824A
S11342701B821C821D82CE010696AC016BE070E0AD
S113428080E090E00E94F82389838981882309F0E3
S113429083C08E819F81A885B98581709927AA27BB
S11342A0BB27892B8A2B8B2B91F48E819F81A88528
S11342B0B98581609C01AD016BE070E080E090E025
S11342C00E94162489838981882309F067C0CE015E
S11342D00696AC0161E070E080E090E00E94F82373
S11342E089838981882309F05BC08E819F81A88599
S11342F0B98582709927AA27BB27892B8A2B8B2BF8
S113430091F48E819F81A885B98582609C01AD015D
S113431061E070E080E090E00E9416248983898146
S1134320882309F03FC0CE010A96AC016FE070E02B
S113433080E090E00E94F823898389818823A1F595
S11343408A859B85AC85BD8584709927AA27BB2760
S1134350892B8A2B8B2BE1F462E070E080E090E003
S11343600E94E6108A819B81AC81BD810196A11DCA
S1134370B11D8A839B83AC83BD838A819B81AC817D
S1134380BD810597A105B10570F28CEF89830DC03D
S113439000000E94D02309C0000007C0000005C02F
S11343A0000003C0000001C0000089812D96CDBF2C
S11343B0DEBFDF91CF910895CF93DF93CDB7DEB702
S11343C06297CDBFDEBF8A8B1D8619821A821B823B
S11343D01C821D821E821F82188619861A861B86DD
S11343E01C8682E593E1DC018E879F87A88BB98BBD
S11343F019821A821B821C8264E170E180E090E0E1
S11344000E94DC23DC01CB0189839A83AB83BC83C8
S113441089819A81AB81BC81BB233CF061E070E06F
S113442080E090E00E94E610E7CF00006CEB77E0BC
S113443082E090E00E94DC23DC01CB0189839A8333
S1134440AB83BC8389819A81AB81BC8181709927BC
S1134450AA27BB2789839A83AB83BC8389819A81EA
S1134460AB81BC81892B8A2B8B2B51F519821A8243
S11344701B821C821CC061E070E080E090E00E941E
S1134480E6106CE070E0CB010E94DC23DC01CB0180
S113449089839A83AB83BC838D819E81AF81B885E8
S11344A00196A11DB11D8D839E83AF83B887898139
S11344B09A81AB81BC818E39904DAD4AB041D9F619
S11344C08A898230A9F42DE735ED4CE15CE36CEA8E
S11344D077E082E090E00E94162420E030E040E1A2
S11344E050E06CE870E180E090E00E9416243BC04C
S11344F08A898330A1F42DE735ED4CE15CE36CEA65
S113450077E082E090E00E94162420E030E0A901E8
S11345106CE870E180E090E00E94162424C08A894F
S11345208430A9F480E890E0A0E0B0E089879A871D
S1134530AB87BC878E859F85A889B9899C01AD010D
S11345406CE870E180E090E00E9416240CC08E8537
S11345509F85A889B9899C01AD016CE870E180E070
S113456090E00E9416240E94A21FDC01CB019F70E0
S1134570AA27BB27803A9340A105B10550F089854D
S11345809A85AB85BC858260BC01CD010E94E61E84
S113459008C089859A85AB85BC85BC01CD010E9484
S11345A0E61E21E63FE242E55FEE6CE070E0CB01FF
S11345B00E9416248D856296CDBFDEBFDF91CF9118
S11345C00895CF93DF93CDB7DEB76697CDBFDEBF37
S11345D08E8B19821A821B821C821D821E821F826C
S11345E0188619868FEF9FEFDC018A879B87AC873B
S11345F0BD878CE890E1A0E0B0E08E879F87A88B10
S1134600B98B86E396E2A3E5B2E08A8B9B8BAC8BF5
S1134610BD8B8E89823021F08E89833009F040C0B1
S11346208CEA97E0A2E0B0E08E879F87A88BB98BD5
S113463083EC91ECADE5B7ED8A8B9B8BAC8BBD8B9A
S11346402FC062E070E080E090E00E94E6108E856A
S11346509F85A889B989BC01CD010E94DC23DC01B6
S1134660CB018A839B83AC83BD838E819F81A88584
S1134670B9850196A11DB11D8E839F83A887B98733
S11346802E813F81488559858A859B85AC85BD856A
S1134690281739074A075B0718F08BEF89831FC077
S11346A02A893B894C895D898A819B81AC81BD8142
S11346B0281739074A075B0721F68A899B89AC8941
S11346C0BD8986339642A345B24049F420E030E0E8
S11346D0A9016CE870E180E090E00E9416248981D1
S11346E06696CDBFDEBFDF91CF910895CF93DF9360
S11346F0CDB7DEB72597CDBFDEBF1A821B821C82E1
S11347001D82CE010296AC0160E074E180E090E08D
S11347100E94F823898389818823B9F48A819B8143
S1134720AC81BD819B7F8A839B83AC83BD838A815B
S11347309B81AC81BD819C01AD0160E074E180E0AE
S113474090E00E941624898301C000008981259687
S1134750CDBFDEBFDF91CF910895CF93DF9300D01B
S11347601F92CDB7DEB78A839B8319828A819B818E
S11347700E941013898389812396CDBFDEBFDF9108
S1134780CF910895CF93DF931F92CDB7DEB71982EF
S11347900E947313898389810F90DF91CF910895CB
S11347A0CF93DF931F92CDB7DEB719820E94742D89
S11347B00F90DF91CF910895CF93DF9300D000D075
S11347C0CDB7DEB769837A838B839C8389819A8191
S11347D0AB81BC81BC01CD010E94142EDC01CB0154
S11347E0BC01CD012496CDBFDEBFDF91CF910895EA
S11347F0CF93DF93CDB7DEB72697CDBFDEBF6983F6
S11348007A838B839C834D835E832D813E81898152
S11348109A81AB81BC81A901BC01CD010E94372ED4
S11348202696CDBFDEBFDF91CF910895CF93DF935E
S1134830CDB7DEB72897CDBFDEBF69837A838B837C
S11348409C832D833E834F8358872D813E814F81E6
S1134850588589819A81AB81BC81BC01CD010E94BC
S11348605E2E2896CDBFDEBFDF91CF910895CF9302
S1134870DF93CDB7DEB72897CDBFDEBF69837A83D8
S11348808B839C834D835E832F8338872F81388568
S11348904D815E8189819A81AB81BC81BC01CD014E
S11348A00E94882E2896CDBFDEBFDF91CF91089558
S11348B0EF92FF920F931F93CF93DF93CDB7DEB7A1
S11348C06197CDBFDEBF688779878A879B874C87CE
S11348D05D870E871F87288B398B809143289091A1
S11348E0442808978E839F8319821A821B821C8214
S11348F01D828E819F819C0140E050E08E859F85C2
S1134900A889B989281739074A075B07B8F06E8563
S11349107F8589819A812C853D85A901480F591F7E
S113492088859985AA85BB859B01BC01CD010E9420
S11349303724982F8D81890F8D8351C089819A8165
S11349402C853D85A901480F591F2E813F818885FB
S11349509985AA85BB85BC01CD010E943724982F77
S11349608D81890F8D838D818823C1F58E819F81EF
S1134970CC01A0E0B0E02E853F85488959897901B2
S11349808A01E81AF90A0A0B1B0BD801C7018E87A2
S11349909F87A88BB98B8E819F81CC01A0E0B0E06A
S11349A029813A814B815C81820F931FA41FB51F1B
S11349B089839A83AB83BC838E819F81CC01A0E0E1
S11349C0B0E0288539854A855B85820F931FA41F33
S11349D0B51F88879987AA87BB878BCF00008D81F5
S11349E06196CDBFDEBFDF91CF911F910F91FF90F4
S11349F0EF900895CF93DF93CDB7DEB72897CDBF5F
S1134A00DEBF69837A838B839C834D835E832F838C
S1134A1038872F8138854D815E8189819A81AB8168
S1134A20BC81BC01CD010E94B22E2896CDBFDEBF51
S1134A30DF91CF910895EF92FF920F931F93CF933D
S1134A40DF93CDB7DEB76197CDBFDEBF68877987C7
S1134A508A879B874C875D870E871F87288B398BB6
S1134A60809143289091442808978E839F831982CC
S1134A701A821B821C821D828E819F819C0140E0D0
S1134A8050E08E859F85A889B989281739074A0778
S1134A905B07B8F06E857F8589819A812C853D8579
S1134AA0A901480F591F88859985AA85BB859B0153
S1134AB0BC01CD010E94FA24982F8D81890F8D832A
S1134AC051C089819A812C853D85A901480F591FC0
S1134AD02E813F8188859985AA85BB85BC01CD013E
S1134AE00E94FA24982F8D81890F8D838D818823CC
S1134AF0C1F58E819F81CC01A0E0B0E02E853F8579
S1134B004889598979018A01E81AF90A0A0B1B0BA9
S1134B10D801C7018E879F87A88BB98B8E819F810F
S1134B20CC01A0E0B0E029813A814B815C81820F05
S1134B30931FA41FB51F89839A83AB83BC838E8183
S1134B409F81CC01A0E0B0E0288539854A855B854A
S1134B50820F931FA41FB51F88879987AA87BB87D5
S1134B608BCF00008D816196CDBFDEBFDF91CF91E9
S1134B701F910F91FF90EF9008950F931F93CF9380
S1134B80DF93CDB7DEB76597CDBFDEBF8C8B9D8B32
S1134B90188619861A861B86198228E0CE010C967F
S1134BA0FC01322F11923A95E9F78C899D89892B62
S1134BB009F4D6C08C899D8926E230E040E050E0BB
S1134BC060E00E94BF13CE010896AC0168E070E07B
S1134BD08CE090E00E94F82389838981882309F07E
S1134BE0BFC088859985AA85BB85892B8A2B8B2B89
S1134BF009F4B4C088859985AA85BB85A360AE01F4
S1134C00445F5F4F08E010E020E030E0BC01CD01DC
S1134C100E94582489838981882309F0A1C0888946
S1134C209989AA89BB8988879987AA87BB87888538
S1134C309985AA85BB85AA27BB2788879987AA87D0
S1134C40BB8788859985AA85BB85892B8A2B8B2B65
S1134C5009F481C088859985AA85BB85A3604C89A0
S1134C605D8906E210E020E030E0BC01CD010E9445
S1134C70582489838981882309F072C08C899D898D
S1134C80FC018481882F90E0382F22278C899D890C
S1134C90FC018581882F90E082959295907F9827DA
S1134CA0807F98279927282B392B8C899D89FC0193
S1134CB08681882F90E08F709927822B932B8A838B
S1134CC09B8382E593E18C839D838C899D89FC0180
S1134CD08781882F90E0382F22278C899D89FC01B9
S1134CE08085882F90E082959295907F9827807F89
S1134CF098279927282B392B8C899D89FC0181853C
S1134D00882F90E08F709927822B932B8E839F831B
S1134D108A819B81892B41F08E819F81892B21F08F
S1134D208E819F81892B19F484EF898319C02C818A
S1134D303D818E819F812817390718F483EF898379
S1134D400FC02C813D818A819B818217930740F497
S1134D5083EF898305C084EF898302C084EF89834C
S1134D6089816596CDBFDEBFDF91CF911F910F91F1
S1134D700895CF93DF9300D000D0CDB7DEB78B83F7
S1134D809C8319828B819C81892B71F08B819C81FE
S1134D90FC0180818A838A81882319F08A81853085
S1134DA028F081E08A8302C081E08A8380E090E079
S1134DB00E94AD2389838981882331F50E949A2D2D
S1134DC08A810E94DC21898389818823A9F48A81CC
S1134DD00E94E12289838981882381F48A81823037
S1134DE0A1F08A81833089F00E94401F89838981E0
S1134DF0882331F489810AC0000003C0000001C087
S1134E0000000E94C22301C0000089812496CDBF06
S1134E10DEBFDF91CF910895CF93DF9300D01F922F
S1134E20CDB7DEB78A839B830E94762389838981E9
S1134E30882381F480E00E94F4388983898188235F
S1134E4059F40E94C22389838981882339F40E94FA
S1134E500A2E05C0000003C0000001C000008981C3
S1134E602396CDBFDEBFDF91CF910895CF93DF931B
S1134E70CDB7DEB72A97CDBFDEBF8F83988769870A
S1134E807A8719821A828F8198858B839C8389857E
S1134E909A858D839E83CE010196BC0183E00E9496
S1134EA041132A96CDBFDEBFDF91CF910895CF93F2
S1134EB0DF93CDB7DEB72A97CDBFDEBF8F83988748
S1134EC069877A878F81988589839A831B821C825C
S1134ED089859A858D839E83CE010196BC0183E0EA
S1134EE00E9441132A96CDBFDEBFDF91CF91089572
S1134EF0CF93DF93CDB7DEB72597CDBFDEBF8C83CD
S1134F006D838C81882F90E09C01220F331F8D814B
S1134F10882F90E08227932784539F4F89839A8315
S1134F2089819A81FC0184918B838B812596CDBFE5
S1134F30DEBFDF91CF910895CF93DF93CDB7DEB776
S1134F402797CDBFDEBF89836A837B832C833D8310
S1134F504E835F830EC08A819B819C012F5F3F4FEC
S1134F602A833B83FC018081682F89810E947827F2
S1134F7089838C819D81AE81BF819C01AD012150CB
S1134F803109410951092C833D834E835F83892B69
S1134F908A2B8B2B01F789812796CDBFDEBFDF914A
S1134FA0CF910895AF92CF92DF92EF92FF920F9339
S1134FB01F93CF93DF93CDB7DEB76997CDBFDEBF25
S1134FC08C874D875E876F87788B098B1A8B2B8B29
S1134FD03C8BCD8ADE8AEF8AF88EA98E85E08983A0
S1134FE081E08A838C858B838C85882F90E0092EC1
S1134FF0000CAA0BBB0B41EC50E02EE030E0841B0C
S1135000950B2817390708F4F1C0895A9F4FFC0102
S11350100C94503B8D859E85AF85B889CD01AA2718
S1135020BB278C838D859E85AF85B889892F9A2F60
S1135030AB2FBB278D838D858E8385E08983D8C074
S11350408D859E85AF85B889892F9A2FAB2FBB2775
S11350508C83898D882319F08C8180688C838D855D
S11350608D831E8285E08983C3C01C821D821E82BB
S113507085E08983BDC01C821D821E8285E08983F0
S1135080B7C08FEF8C838FEF8D838FEF8E8385E096
S11350908983AEC08D859E85AF85B889CD01AA2749
S11350A0BB278C838D859E85AF85B889892F9A2FE0
S11350B0AB2FBB278D838D858E838D899E89AF8988
S11350C0B88D892F9A2FAB2FBB278F838D89888723
S11350D087E089838DC08D859E85AF85B889CD0194
S11350E0AA27BB278C838D859E85AF85B889892F98
S11350F09A2FAB2FBB278D838D858E838D899E89B7
S1135100AF89B88DCD01AA27BB278F838D899E894E
S1135110AF89B88D892F9A2FAB2FBB2788878D89AC
S1135120898788E0898364C08D859E85AF85B88929
S1135130892F9A2FAB2FBB278C83898D882319F055
S11351408C8180688C838D858D8389899A89AB89CC
S1135150BC898B2F9927AA27BB278E8389899A8993
S1135160AB89BC89CD01AA27BB278F8389899A89FA
S1135170AB89BC89892F9A2FAB2FBB278887898954
S1135180898788E0898334C08D859E85AF85B889F9
S1135190CD01AA27BB278C838D859E85AF85B889D1
S11351A0892F9A2FAB2FBB278D838D858E83898979
S11351B09A89AB89BC898B2F9927AA27BB278F8310
S11351C089899A89AB89BC89CD01AA27BB2788879D
S11351D089899A89AB89BC89892F9A2FAB2FBB27E0
S11351E0898789898A8789E0898302C01A820000B5
S11351F08A81882389F18091152E8823F9F4898185
S1135200882F90E08C01015011098981882F90E04A
S11352100197092E000CAA0BBB0BBE016D5F7F4FDB
S11352209C01AD018FE70E949C27282F220FCE01FD
S11352300396800F911FFC01208303C08981815054
S113524089838981282F30E0CE010396B9010E9419
S11352505727882309F01A828A816996CDBFDEBF59
S1135260DF91CF911F910F91FF90EF90DF90CF903E
S1135270AF900895CF93DF93CDB7DEB72697CDBF18
S1135280DEBF8E8381E08A838091152E882319F4F2
S113529082E0898302C083E089838981282F30E0FA
S11352A0CE010396B9010E943627882311F01A8291
S11352B01CC08981882F90E001979E012D5F3F4F8C
S11352C0820F931FFC018081882369F48981882FD0
S11352D090E002979E012D5F3F4F820F931FFC01C8
S11352E08081833C11F01A8200008A812696CDBF0A
S11352F0DEBFDF91CF910895CF93DF9300D000D02C
S1135300CDB7DEB78C8381E089838C818F3C31F00B
S11353108C81853C19F08C81863C51F4CE01039636
S113532061E070E00E943627882311F019822BC0B7
S11353308AE08A83CE01039661E070E00E943627FA
S1135340882311F019821FC09B818C81981731F03A
S11353508A81982F91509A83181664F38AE08A837D
S1135360CE01039661E070E00E943627882311F095
S1135370198209C08B81882331F08A81982F91503A
S11353809A8318166CF389812496CDBFDEBFDF9112
S1135390CF910895CF93DF93CDB7DEB72F97CDBFCD
S11353A0DEBF8B879C876D877E874F8781E08F83E5
S11353B01B821C828D859E858130904228F48D85C8
S11353C09E858D839E8304C080E090E28D839E83BE
S11353D08AE090E089839A83CE010A9661E070E0C6
S11353E00E943627882311F01F8214C08A85829573
S11353F08F70882F90E08F7099270F9751F08981D3
S11354009A819C012150310929833A83892B21F700
S113541001C000008F81882309F43FC089819A81EB
S11354201816190614F01F8239C04D815E818B81D4
S11354309C812B853C85820F931FBA010E943627DD
S1135440882311F01F822AC08F85882371F48091EC
S1135450152E882351F4CE01089662E070E00E9474
S11354603627882311F01F8219C02B813C818D813E
S11354709E81820F931F8B839C838D819E812D85BA
S11354803E85A901481B590BCA018D879E878D85CE
S11354909E85892B09F08ECF01C000008F812F9645
S11354A0CDBFDEBFDF91CF910895CF93DF93CDB70A
S11354B0DEB72D97CDBFDEBF8A879B876C877D873C
S11354C081E08D831886198619821A828C859D85C0
S11354D08130904228F48C859D858B839C8304C005
S11354E080E090E28B839C8380EF8F8389819A8113
S11354F0892B59F48C859D858130904218F483E082
S11355008E830DC081E08E830AC08C859D85813099
S1135510904218F483E08E8302C082E08E839F81E0
S11355208E81892B8F83CE01079661E070E00E9403
S11355305727882311F01D8234C089819A812A85D6
S11355403B85820F931F2B813C81B9010E94572711
S1135550882311F01D8225C08091152E882351F4D3
S1135560CE01089662E070E00E945727882311F06C
S11355701D8217C029813A818B819C81820F931FE0
S113558089839A832C853D858B819C81A901481B45
S1135590590BCA018C879D878C859D85892B09F0C1
S11355A095CF8D812D96CDBFDEBFDF91CF9108952C
S11355B0AF92CF92DF92EF92FF920F931F93CF930C
S11355C0DF93CDB7DEB72C97CDBFDEBF6D837E836F
S11355D08F83988729873A874B875C878AE08983FA
S11355E081E08A8389EC8B831C828D819E81AF81CB
S11355F0B885C197A105B10528F483EC8B8381E0BC
S11356008C8303C089EC8B831C8229853A854B8566
S11356105C858D819E81AF81B885AC80C12CD12CF5
S113562076016894C2F889019A01AC01BD018B81AD
S11356300E94D2278A838A81813029F48B810E9437
S11356407C298A8301C000008A81813019F161E0DC
S113565070E080E090E00E94E610A12CC12CD12CD7
S1135660760100E010E0980140E050E0BA018FECD0
S11356700E94D2278FEC0E947C2961E070E080E0D8
S113568090E00E94E6108981815089838981882372
S113569009F0ABCF8A812C96CDBFDEBFDF91CF91CD
S11356A01F910F91FF90EF90DF90CF90AF900895EE
S11356B0AF92CF92DF92EF92FF920F931F93CF930B
S11356C0DF93CDB7DEB72B97CDBFDEBF6C837D8371
S11356D08E839F83488759872A873B878AE08A83FA
S11356E087EC8B838A859B85019721F482E090E087
S11356F08A879B878A859B859C0140E050E08C814A
S11357009D81AE81BF81A12C69017A0100E010E086
S11357109801AC01BD018B810E94D22789838981C4
S11357208130B9F48B810E947C29898389818130FD
S113573091F42A853B8588859985B9010E94552A6B
S113574089838981813049F48B810E943A29898334
S113575005C0000003C0000001C000008981813041
S113576019F161E070E080E090E00E94E610A12C65
S1135770C12CD12C760100E010E0980140E050E00B
S1135780BA018FEC0E94D2278FEC0E947C2961E041
S113579070E080E090E00E94E6108A8181508A8364
S11357A08A81882309F09ECF89812B96CDBFDEBFE5
S11357B0DF91CF911F910F91FF90EF90DF90CF90E9
S11357C0AF900895AF92CF92DF92EF92FF920F9332
S11357D01F93CF93DF93CDB7DEB72E97CDBFDEBF38
S11357E069877A878B879C874D875E878AE0898360
S11357F081E08A838AEC8B831C8289859A85AB85B8
S1135800BC858F3F9105A105B10509F028F484EC0E
S11358108B8381E08C8303C08AEC8B831C82898513
S11358209A85AB85BC85AC80C12CD12C760168945B
S1135830C2F800E010E09801AC01BD018B810E9428
S1135840D2278A838A81813009F046C08B810E94E5
S11358507C298A838A81813009F040C0CE01059673
S11358604C8164E070E00E94CA298A838A81813075
S1135870B9F58D81282F30E040E050E08E81882FEB
S113588090E0A0E0B0E0BA2FA92F982F8827282B0A
S1135890392B4A2B5B2B8F81882F90E0A0E0B0E05E
S11358A0DC0199278827282B392B4A2B5B2B8885E9
S11358B0882F90E0A0E0B0E0B82FAA279927882786
S11358C0822B932BA42BB52B2D853E85F901808348
S11358D09183A283B38305C0000003C0000001C00C
S11358E000008A81813019F161E070E080E090E08D
S11358F00E94E610A12CC12CD12C760100E010E00E
S1135900980140E050E0BA018FEC0E94D2278FEC5E
S11359100E947C2961E070E080E090E00E94E61043
S11359208981815089838981882309F066CF8A819E
S11359302E96CDBFDEBFDF91CF911F910F91FF90C7
S1135940EF90DF90CF90AF900895AF92CF92DF9217
S1135950EF92FF920F931F93CF93DF93CDB7DEB7F0
S11359602E97CDBFDEBF6F83788789879A874B8751
S11359705C872D873E8788EC8C838AE08A831B8230
S11359808D859E85019731F482E090E08D879E8716
S113599081E08B838D859E859C0140E050E08F8162
S11359A09885A985BA85A12C69017A0100E010E0E7
S11359B09801AC01BD018C810E94D2278983898121
S11359C0813019F58C810E947C29898389818130F9
S11359D0F1F48B81882379F02D853E85CE010596DF
S11359E040E0B9010E94CA2989832D818B859C8559
S11359F0FC0120830DC02D853E858B859C8540E070
S1135A00B9010E94CA29898303C0000001C00000B3
S1135A108981813019F161E070E080E090E00E94BA
S1135A20E610A12CC12CD12C760100E010E09801E5
S1135A3040E050E0BA018FEC0E94D2278FEC0E9424
S1135A407C2961E070E080E090E00E94E6108A81A9
S1135A5081508A838A81882309F092CF89812E9686
S1135A60CDBFDEBFDF91CF911F910F91FF90EF90DB
S1135A70DF90CF90AF900895CF93DF9300D000D004
S1135A80CDB7DEB764E278EE80E090E00E94142E99
S1135A90DC01CB0189839A83AB83BC8389819A819E
S1135AA0AB81BC818F7889839A83AB83BC838981E2
S1135AB09A81AB81BC81806589839A83AB83BC83E3
S1135AC0000089819A81AB81BC819C01AD0164E2B3
S1135AD078EE80E090E00E945E2E00002496CDBF18
S1135AE0DEBFDF91CF910895AF92CF92DF92EF9214
S1135AF0FF920F931F93CF93DF93CDB7DEB7A12C03
S1135B00C12CD12C760100E010E0980140E050E077
S1135B10BA018FEC0E94D2278FEC0E947C2980E08E
S1135B20DF91CF911F910F91FF90EF90DF90CF9075
S1135B30AF900895CF93DF93CDB7DEB72897CDBF4D
S1135B40DEBF1D821E821F8218861092152ECE0182
S1135B500596AC0164E278EE80E090E00E94E22BCE
S1135B60882381F481E08093152ECE010596AC0143
S1135B7064E278EE80E090E00E94E22B882311F446
S1135B8080E042C08091152E882371F58D819E811D
S1135B90AF81B885837F8D839E83AF83B8878D81E2
S1135BA09E81AF81B8858F788D839E83AF83B887BC
S1135BB08D819E81AF81B88580658D839E83AF83FF
S1135BC0B8878D819E81AF81B8859C01AD0164E267
S1135BD078EE80E090E00E94D82A882311F480E0D7
S1135BE013C081E08093152ECE010196AC0160E0D4
S1135BF070E180E090E00E94E22B882311F48AEFA8
S1135C0003C00E943C2D80E02896CDBFDEBFDF910B
S1135C10CF910895CF93DF93CDB7DEB71092152EB1
S1135C2080E0DF91CF910895CF93DF93CDB7DEB7B6
S1135C302897CDBFDEBF6D837E838F8398878D8148
S1135C409E81AF81B8859E012F5F3F4FA901BC01A2
S1135C50CD010E94E22B89819A81AB81BC81BC0178
S1135C60CD012896CDBFDEBFDF91CF910895CF93AC
S1135C70DF93CDB7DEB72797CDBFDEBF6A837B83C3
S1135C808C839D834E835F832E813F818A819B8198
S1135C90AC81BD81A901BC01CD010E94E22B8983A5
S1135CA08981813011F4198202C08AEF8983898144
S1135CB02796CDBFDEBFDF91CF910895CF93DF93B9
S1135CC0CDB7DEB72997CDBFDEBF6A837B838C83D4
S1135CD09D832E833F83488759872E813F81488542
S1135CE059858A819B81AC81BD81BC01CD010E9413
